S01400004C6162324469676974616C322E73726563DF
S11300000C9434000C9449000C9449000C9449005D
S11300100C9449000C9449000C9449000C94490038
S11300200C9449000C9449000C9449000C94490028
S11300300C9449000C9449000C9449000C94490018
S11300400C9449000C9449000C9449000C94490008
S11300500C9449000C9449000C9449000C944900F8
S11300600C9449000C94490011241FBECFEFD8E032
S1130070DEBFCDBF11E0A0E0B1E0ECE9FFE002C0DB
S113008005900D92A632B107D9F70E94DD010C94B8
S1130090CC070C94000010927C0010927A00009718
S11300A031F4ECE7F0E080818064808307C001973D
S11300B029F4ECE7F0E08081806C808361157105A0
S11300C031F4ECE7F0E080818062808308C0613025
S11300D0710529F4ECE7F0E080818F7D8083423064
S11300E0510531F4EAE7F0E080818160808335C016
S11300F04430510531F4EAE7F0E080818260808386
S11301002CC04830510531F4EAE7F0E08081836087
S1130110808323C04031510531F4EAE7F0E0808167
S1130120846080831AC04032510531F4EAE7F0E07C
S113013080818560808311C04034510531F4EAE741
S1130140F0E080818660808308C04038510529F43E
S1130150EAE7F0E0808187608083EAE7F0E080816D
S11301608068808308959C01EAE7F0E09081977F9E
S11301709083ECE7F0E09081907F90832115310526
S113018021F48081807F808335C02130310531F4B2
S1130190ECE7F0E08081816080832CC0223031055F
S11301A031F4ECE7F0E080818260808323C0233067
S11301B0310531F4ECE7F0E08081836080831AC07C
S11301C02430310531F4ECE7F0E0808184608083F1
S11301D011C02530310531F4ECE7F0E08081856011
S11301E0808308C02630310529F4ECE7F0E08081F3
S11301F086608083EAE7F0E0808180648083809178
S11302007A0086FDFCCF80917900089580FF04C0B8
S11302109BB190619BB903C09BB19F7E9BB981FF49
S113022004C09BB190629BB903C09BB19F7D9BB9F5
S113023082FF04C09BB190649BB903C09BB19F7BB8
S11302409BB983FF04C09BB190689BB903C09BB169
S11302509F779BB984FF04C095B1916095B903C0A1
S113026095B19E7F95B985FF04C095B1926095B90B
S113027003C095B19D7F95B986FF04C095B1946084
S113028095B903C095B19B7F95B9882324F485B1B2
S1130290886085B9089585B1877F85B908959BB134
S11302A09B7F9BB90E9406018BB188608BB985E066
S11302B08A95F1F700008BB1877F8BB98FE39FE1BB
S11302C00197F1F700C0000008958AB18C6F8AB9D4
S11302D01BB884B18F6084B915B82FEF89EF90E013
S11302E0215080409040E1F700C0000088E30E9464
S11302F04F018FE19EE40197F1F700C0000088E30D
S11303000E944F018FE99FE00197F1F700C00000C0
S113031088E30E944F018FE99FE00197F1F700C045
S1130320000088E30E944F018CE00E944F0181E0AD
S11303300E944F018FE39FE10197F1F700C0000095
S113034086E00E944F0108959BB194609BB90E947E
S113035006018BB188608BB985E08A95F1F70000BE
S11303608BB1877F8BB98FE39FE10197F1F700C0D1
S1130370000008950F931F93CF93DF938C01C0E087
S1130380D0E003C00E94A4012196F801EC0FFD1FE8
S113039080818111F7CFDF91CF911F910F91089543
S11303A0613019F49FE7980F04C0623011F49FEB99
S11303B0980F892F0E944F010895CF93DF93CDB7F3
S11303C0DEB760970FB6F894DEBF0FBECDBF87B11E
S11303D08E7B87B988B1836088B90E94650140E843
S11303E050E060E070E080E090E00E944B000F2E4F
S11303F0F7E6AF2EB12CF02D6894CC24C3F8D12CA1
S1130400EE24E394F12C00E010E020E030E040E042
S113041050E060E070E080E895E20E94DF02E12CA9
S1130420F12C81E090E00E94B300C82ED12C80E032
S113043090E00E94B300082F10E0B601DD0C880B99
S1130440990B0E94B30321EA30EA40EA5CE30E947C
S1130450170420E030E048EC52E40E9417040E94A4
S11304607B036B01B801110F880B990B0E94B30336
S113047021EA30EA40EA5CE30E94170420E030E01D
S113048048EC52E40E9417040E947B035B0161E084
S113049081E00E94D00180E091E00E94BA0162E014
S11304A081E00E94D0010F2EF4E68F2E912CF02DC6
S11304B0C601B4010E94AC049F938F937F936F9302
S11304C00F2EF5E0CF2EF1E0DF2EF02DDF92CF924C
S11304D01F926894772474F87F928E010F5F1F4FE8
S11304E01F930F930E94D404C8010E94BA0180E1B3
S11304F091E00E946303C8010E94630361E087E006
S11305000E94D00184E191E00E94BA0162E087E098
S11305100E94D001C501B4010E94AC049F938F9343
S11305207F936F93DF92CF921F927F921F930F93CB
S11305300E94D404C8010E94BA0188E191E00E949B
S11305406303C8010E94630361E08DE00E94D0014F
S11305508DE191E00E94BA0162E08DE00E94D00139
S1130560FF92EF9281E291E09F938F931F927F928B
S11305701F930F930E94D404C8010E94BA01809172
S1130580C0000FB6F894DEBF0FBECDBF88236CF455
S11305900E9474038B3221F43FEFE31AF30A05C07F
S11305A08D3219F481E0E81AF1089FEF29E638E169
S11305B0915020403040E1F700C0000032CFAF92AC
S11305C0BF92CF92DF92EF92FF920F931F938AB163
S11305D08E7F8AB98AB182608AB91092C000613074
S11305E0710529F4E0ECF0E0808182608083413081
S11305F0510529F4E0ECF0E0808181608083E1EC36
S1130600F0E010828081806A8083808188618083A9
S11306101092C2002130310529F4E2ECF0E080812F
S1130620806480830130110531F4E2ECF0E08081D4
S11306308062808308C00230110529F4E2ECF0E006
S113064080818063808382E0E816F10429F4E2EC7F
S1130650F0E080818860808387E0C816D104A9F027
S11306602CF486E0C816D10451F020C088E0C816E6
S1130670D10489F089E0C816D10499F017C0E2ECDE
S1130680F0E080818260808311C0E2ECF0E0808140
S1130690846080830BC0E2ECF0E08081866080831C
S11306A005C0E2ECF0E0808186608083B092C500F2
S11306B0A092C4001F910F91FF90EF90DF90CF9014
S11306C0BF90AF900895AC0120E007C09091C000A6
S11306D095FFFCCF3093C6002F5FFA01E20FF11DA6
S11306E030813111F3CF08958091C0008823E4F75D
S11306F08091C60008950E9482036894B1110C94FD
S1130700110408950E94F60388F09F5798F0B92FBA
S11307109927B751B0F0E1F0660F771F881F991F32
S11307201AF0BA95C9F714C0B13091F00E941004C0
S1130730B1E008950C941004672F782F8827B85FD0
S113074039F0B93FCCF3869577956795B395D9F78A
S11307503EF490958095709561957F4F8F4F9F4F94
S11307600895E89409C097FB3EF4909580957095A0
S113077061957F4F8F4F9F4F9923A9F0F92F96E9E9
S1130780BB279395F695879577956795B795F1115E
S1130790F8CFFAF4BB0F11F460FF1BC06F5F7F4FFB
S11307A08F4F9F4F16C0882311F096E911C077230D
S11307B021F09EE8872F762F05C0662371F096E816
S11307C0862F70E060E02AF09A95660F771F881FE5
S11307D0DAF7880F9695879597F9089557FD9058FD
S11307E0440F551F59F05F3F71F04795880F97FBF1
S11307F0991F61F09F3F79F08795089512161306AB
S11308001406551FF2CF4695F1DF08C016161706D9
S11308101806991FF1CF869571056105089408950E
S1130820E894BB2766277727CB0197F908950E94A0
S11308302A040C949B040E948D0438F00E949404B2
S113084020F0952311F00C9484040C948A04112450
S11308500C9411040E94EE0370F3959FC1F3950F5D
S113086050E0551F629FF001729FBB27F00DB11D30
S1130870639FAA27F00DB11DAA1F649F6627B00DC0
S1130880A11D661F829F2227B00DA11D621F739FA9
S1130890B00DA11D621F839FA00D611D221F749FB7
S11308A03327A00D611D231F849F600D211D822FFE
S11308B0762F6A2F11249F5750409AF0F1F0882325
S11308C04AF0EE0FFF1FBB1F661F771F881F915052
S11308D05040A9F79E3F510580F00C9484040C9479
S11308E011045F3FE4F3983ED4F3869577956795BA
S11308F0B795F795E7959F5FC1F7FE2B880F911D7C
S11309009695879597F9089597F99F6780E870E021
S113091060E008959FEF80EC089500240A94161671
S1130920170618060906089500240A9412161306D9
S1130930140605060895092E0394000C11F4882367
S113094052F0BB0F40F4BF2B11F460FF04C06F5F83
S11309507F4F8F4F9F4F089597FB072E16F40094F7
S113096007D077FD09D00E94C00407FC05D03EF4EF
S1130970909581959F4F0895709561957F4F089547
S1130980AA1BBB1B51E107C0AA1FBB1FA617B707B1
S113099010F0A61BB70B881F991F5A95A9F78095CD
S11309A09095BC01CD010895AEE0B0E0EAEDF4E02D
S11309B00C94A3070D891E898F89988D26E02C83BA
S11309C01A83098397FF02C080E090E801979E8311
S11309D08D83AE01455E5F4F698D7A8DCE010196A0
S11309E00E9404054D815E8157FD0AC02F81388520
S11309F0421753070CF49A01F801E20FF31F108217
S1130A002E96E4E00C94BF07ABE0B0E0EAE0F5E03A
S1130A100C9495076C017B018A01FC0117821682F4
S1130A20838181FFCCC1CE0101963C01F601938103
S1130A30F70193FD859193FF81917F01882309F448
S1130A40BAC1853239F493FD859193FF81917F0179
S1130A50853229F4B60190E00E94FB06E7CF912C81
S1130A60212C312CFFE1F315D8F08B3279F038F4D6
S1130A70803279F08332A1F4232D20611DC08D32A0
S1130A8061F0803369F4232D216016C0832D8260C8
S1130A90382EE32DE4603E2E2AC0F32DF8601DC0ED
S1130AA037FC2DC020ED280F2A3040F08E32B9F4E7
S1130AB036FC81C1232D2064322E19C036FE06C0B7
S1130AC08AE0989E200D1124922E11C0EAE02E9EF9
S1130AD0200D1124222EF32DF0623F2E08C08C36F7
S1130AE021F4832D8068382E02C0883641F4F70142
S1130AF093FD859193FF81917F018111B3CF982F4D
S1130B009F7D9554933028F40C5F1F4F9FE3998386
S1130B100DC0833631F0833771F0833509F059C045
S1130B2021C0F801808189830E5F1F4F882483943C
S1130B30912C530113C02801F2E04F0E511CF8010F
S1130B40A080B18036FE03C0692D70E002C06FEF53
S1130B507FEFC5010E94F0064C018201F32DFF775F
S1130B603F2E16C0280122E0420E511CF801A0803D
S1130B70B18036FE03C0692D70E002C06FEF7FEFD5
S1130B80C5010E94E5064C01F32DF0683F2E820159
S1130B9033FC1BC0822D90E088169906B0F4B60190
S1130BA080E290E00E94FB062A94F4CFF50137FC22
S1130BB0859137FE81915F01B60190E00E94FB06AA
S1130BC021102A9421E0821A91088114910471F76A
S1130BD0E8C0843611F0893641F5F80137FE07C0C4
S1130BE060817181828193810C5F1F4F08C0608195
S1130BF07181072E000C880B990B0E5F1F4FF32D8C
S1130C00FF763F2E97FF09C090958095709561956A
S1130C107F4F8F4F9F4FF0683F2E2AE030E0A301B3
S1130C200E943707882E861845C0853731F4232D56
S1130C302F7EB22E2AE030E025C0932D997FB92E65
S1130C408F36C1F018F4883579F0B5C0803719F0C3
S1130C50883721F0B0C0E92FE061BE2EB4FE0DC08C
S1130C60FB2DF460BF2E09C034FE0AC0292F266074
S1130C70B22E06C028E030E005C020E130E002C01A
S1130C8020E132E0F801B7FE07C060817181828102
S1130C9093810C5F1F4F06C06081718180E090E0FA
S1130CA00E5F1F4FA3010E943707882E8618FB2D65
S1130CB0FF773F2E36FE0DC0232D2E7FA22E8914E2
S1130CC058F434FE0BC032FC09C0832D8E7EA82E4E
S1130CD005C0B82CA32C03C0B82C01C0B92CA4FEA9
S1130CE00FC0FE01E80DF11D8081803321F49A2D9F
S1130CF0997EA92E09C0A2FE06C0B394B39404C081
S1130D008A2D867809F0B394A3FC11C0A0FE06C016
S1130D10B21488F4280C922C9B180EC0B21460F400
S1130D20B60180E290E00E94FB06B394F7CFB214C0
S1130D3018F42B1802C0982C212CA4FE10C0B60164
S1130D4080E390E00E94FB06A2FE17C0A1FC03C052
S1130D5088E790E002C088E590E0B6010CC08A2DD7
S1130D60867859F0A1FE02C08BE201C080E2A7FCA4
S1130D708DE2B60190E00E94FB06891438F4B601B6
S1130D8080E390E00E94FB069A94F7CF8A94F301E3
S1130D90E80DF11D8081B60190E00E94FB068110F0
S1130DA0F5CF222009F442CEB60180E290E00E9401
S1130DB0FB062A94F6CFF6018681978102C08FEF55
S1130DC09FEF2B96E2E10C94B107FC010590615072
S1130DD070400110D8F7809590958E0F9F1F08954D
S1130DE0FC016150704001900110D8F780959095F6
S1130DF08E0F9F1F08950F931F93CF93DF93FB01D3
S1130E00238121FD03C08FEF9FEF2CC022FF16C06A
S1130E1046815781248135814217530744F4A081C8
S1130E20B1819D012F5F3F4F318320838C932681B5
S1130E3037812F5F3F4F3783268314C08B01EC012A
S1130E40FB010084F185E02D0995892BE1F6D80199
S1130E5016968D919C911797019617969C938E9355
S1130E601697CE01DF91CF911F910F910895FA014A
S1130E70AA27283051F1203181F1E8946F936E7FD5
S1130E806E5F7F4F8F4F9F4FAF4FB1E03ED0B4E0C6
S1130E903CD0670F781F891F9A1FA11D680F791F07
S1130EA08A1F911DA11D6A0F711D811D911DA11D18
S1130EB020D009F468943F912AE0269F1124301928
S1130EC0305D3193DEF6CF010895462F4770405DC3
S1130ED04193B3E00FD0C9F7F6CF462F4F70405D72
S1130EE04A3318F0495D31FD4052419302D0A9F7CD
S1130EF0EACFB4E0A6959795879577956795BA95C7
S1130F00C9F700976105710508959B01AC010A2E8C
S1130F1006945795479537952795BA95C9F7620F63
S1130F20731F841F951FA01D08952F923F924F9207
S1130F305F926F927F928F929F92AF92BF92CF9265
S1130F40DF92EF92FF920F931F93CF93DF93CDB76E
S1130F50DEB7CA1BDB0B0FB6F894DEBF0FBECDBFE6
S1130F6009942A88398848885F846E847D848C84B7
S1130F709B84AA84B984C884DF80EE80FD800C81C0
S1130F801B81AA81B981CE0FD11D0FB6F894DEBFA3
S10F0F900FBECDBFED010895F894FFCF13
S1130F9C20533120002025642E252E30326420006D
S1130FAC20533100533220000D2053320053332090
S1090FBC00202564000082
S9030000FC
