:100000000C9434000C9453000C9451000C94C201D5
:100010000C9451000C9451000C9451000C9451001C
:100020000C9451000C9451000C9451000C9451000C
:100030000C9451000C9451000C9451000C945100FC
:100040000C9451000C9451000C9451000C945100EC
:100050000C9451000C9451000C9451000C945100DC
:100060000C9451000C94510011241FBECFEFD8E026
:10007000DEBFCDBF11E0A0E0B1E0EAEDF3E002C0E9
:1000800005900D92A630B107D9F721E0A6E0B1E0C6
:1000900001C01D92AB30B207E1F70E9462000C94E0
:1000A000EB010C9400001F920F920FB60F921124D7
:1000B0008F9381E0809306018F910F900FBE0F9078
:1000C0001F901895E8E6F0E0808181608083EBE680
:1000D000F0E08081876080838AB18FEF8AB91092C7
:1000E000C10094B1986394B995B19F6395B997B1E4
:1000F00087B98AB91BB8789480910601813089F557
:10010000109208011092070118B888B18F7E88B943
:1001100085B1877F85B985B18F7E85B985B18F7DA2
:1001200085B985E012C0E82F082E000CFF0BE050C7
:10013000FF4F90819BB92FEF33ED90E3215030407A
:100140009040E1F700C000008150882364F71092CE
:100150000601109208011092070110920A011092F4
:10016000090180910701909108018230910541F1C8
:100170002CF4009759F00197B1F069C084309105D3
:10018000C9F15CF1059709F442C061C088B18E7F66
:1001900088B988B18D7F88B988B18B7F88B988B1DB
:1001A000877F88B966C088B1816088B988B18D7F42
:1001B00088B988B18B7F88B988B1877F88B959C0E1
:1001C00088B18E7F88B988B1826088B988B18B7F09
:1001D00088B988B1877F88B94CC088B18E7F88B9CB
:1001E00088B18D7F88B988B1846088B988B1877FEC
:1001F00088B93FC088B18E7F88B988B18D7F88B9B2
:1002000088B18B7F88B988B1886088B932C088B1DD
:10021000816088B988B1826088B988B1846088B902
:1002200088B1886088B9809101018BB910920A0168
:100230001092090188B18F7E88B985B1877F85B911
:1002400085B18F7E85B985B18F7D85B912C088B1A2
:10025000816088B988B1826088B988B1846088B9C2
:1002600088B1886088B985E090E090930801809318
:1002700007018091090190910A018230910541F1B5
:100280002CF4009759F00197B1F069C084309105C2
:10029000C9F15CF1059709F442C061C088B18F7E55
:1002A00088B985B1877F85B985B18F7E85B985B1DC
:1002B0008F7D85B921CF88B18F7E88B985B1877F41
:1002C00085B985B1806185B985B18F7D85B914CF38
:1002D00088B18F7E88B985B1886085B985B18F7EF8
:1002E00085B985B18F7D85B907CF88B18F7E88B9F3
:1002F00085B1877F85B985B18F7E85B985B18062EB
:1003000085B9FACE88B1806188B985B1877F85B912
:1003100085B18F7E85B985B18F7D85B9EDCE88B1E8
:10032000806188B985B1886085B985B1806185B9FA
:1003300085B1806285B9809102018BB91092080164
:100340001092070188B18E7F88B988B18D7F88B9F6
:1003500088B18B7F88B988B1877F88B9CDCE88B1C5
:10036000806188B985B1886085B985B1806185B9BA
:1003700085B1806285B985E090E090930A01809311
:100380000901BACE1F920F920FB60F9211248F93CC
:100390009F93189903C081E080930601199909C0C1
:1003A0008091070190910801019690930801809334
:1003B00007011A9909C08091090190910A010196DB
:1003C00090930A01809309019F918F910F900FBE26
:0A03D0000F901F901895F894FFCFCE
:0603DA003F065B4F666D5B
:00000001FF
