S01300004C6162334469676974616C2E7372656311
S11300000C9434000C943E000C943E000C943E007E
S11300100C943E000C943E000C943E000C943E0064
S11300200C943E000C943E000C943E000C943E0054
S11300300C943E000C943E000C943E000C943E0044
S11300400C943E000C943E000C943E000C943E0034
S11300500C943E000C943E000C943E000C943E0024
S11300600C943E000C943E0011241FBECFEFD8E048
S1130070DEBFCDBF0E9440000C943D010C940000F3
S1130080CF93DF9300D000D0CDB7DEB70F2EF7E6C5
S1130090AF2EB12CF02D6894CC24C3F8D12CEE24CF
S11300A0E394F12C00E010E020E030E040E050E088
S11300B060E070E080E895E20E948C008CEF8AB9E1
S11300C084B1836084B910E00CC0E12EF12C0E944D
S11300D01001E1E0F0E0EC0FFD1FEE0DFF1D808349
S11300E01F5F133090F31C82CE0101960E9417010A
S11300F04BB19C013327220F331F220F331F942F40
S11301009370292B2BB995B19C7F82958695869502
S11301108370892B85B9D7CFAF92BF92CF92DF92EC
S1130120EF92FF920F931F938AB18E7F8AB98AB19F
S113013082608AB91092C0006130710529F4E0EC44
S1130140F0E08081826080834130510529F4E0EC45
S1130150F0E0808181608083E1ECF0E010828081B6
S1130160806A80838081886180831092C2002130FC
S1130170310529F4E2ECF0E0808180648083013071
S1130180110531F4E2ECF0E080818062808308C0E4
S11301900230110529F4E2ECF0E080818063808371
S11301A082E0E816F10429F4E2ECF0E08081886052
S11301B0808387E0C816D104A9F02CF486E0C81621
S11301C0D10451F020C088E0C816D10489F089E038
S11301D0C816D10499F017C0E2ECF0E08081826087
S11301E0808311C0E2ECF0E08081846080830BC0E6
S11301F0E2ECF0E080818660808305C0E2ECF0E010
S1130200808186608083B092C500A092C4001F9153
S11302100F91FF90EF90DF90CF90BF90AF90089533
S11302208091C0008823E4F78091C6000895FC0102
S113023088279927E89421912032E9F3293010F096
S11302402E30C8F32B3241F02D3239F4689404C0B7
S11302500E943501820F911D219120532A30C0F351
S11302601EF4909581959F4F08957AE0979F902D65
S1110270879F802D910D11240895F894FFCFDF
S9030000FC
