:100000000C9434000C943E000C943E000C943E0082
:100010000C943E000C943E000C943E000C943E0068
:100020000C943E000C943E000C943E000C943E0058
:100030000C943E000C943E000C943E000C943E0048
:100040000C943E000C943E000C943E000C943E0038
:100050000C943E000C943E000C943E000C943E0028
:100060000C943E000C943E0011241FBECFEFD8E04C
:10007000DEBFCDBF0E94E2000C9472010C94000020
:10008000AF92BF92CF92DF92EF92FF920F931F93A6
:100090008AB18B7F8AB98AB1877F8AB98AB18F7E0C
:1000A0008AB98AB18F7D8AB98AB18F7B8AB98AB1C0
:1000B0008F778AB98BB184608BB98BB188608BB92B
:1000C0008BB180618BB98BB180628BB98BB180644D
:1000D0008BB98BB180688BB90F2EF7E6AF2EB12CA0
:1000E000F02D6894CC24C3F8D12CEE24E394F12CA9
:1000F00000E010E020E030E040E050E060E070E040
:1001000080E895E20E94E7001F910F91FF90EF9029
:10011000DF90CF90BF90AF9008954A990CC081E4D2
:100120000E946B012FE58AEE90E0215080409040C4
:10013000E1F700C000004B990CC082E40E946B0103
:100140002FE58AEE90E0215080409040E1F700C01A
:1001500000004C990CC083E40E946B012FE58AEEED
:1001600090E0215080409040E1F700C000004D99A0
:100170000CC084E40E946B012FE58AEE90E02150D0
:1001800080409040E1F700C000004E990CC085E42B
:100190000E946B012FE58AEE90E021508040904054
:1001A000E1F700C000004F990CC086E40E946B018B
:1001B0002FE58AEE90E0215080409040E1F700C0AA
:1001C000000008950E9440000E948D00FDCFAF9274
:1001D000BF92CF92DF92EF92FF920F931F938AB15B
:1001E0008E7F8AB98AB182608AB91092C00061306C
:1001F000710529F4E0ECF0E0808182608083413079
:10020000510529F4E0ECF0E0808181608083E1EC2D
:10021000F0E010828081806A8083808188618083A1
:100220001092C2002130310529F4E2ECF0E0808127
:10023000806480830130110531F4E2ECF0E08081CC
:100240008062808308C00230110529F4E2ECF0E0FE
:1002500080818063808382E0E816F10429F4E2EC77
:10026000F0E080818860808387E0C816D104A9F01F
:100270002CF486E0C816D10451F020C088E0C816DE
:10028000D10489F089E0C816D10499F017C0E2ECD6
:10029000F0E080818260808311C0E2ECF0E0808138
:1002A000846080830BC0E2ECF0E080818660808314
:1002B00005C0E2ECF0E0808186608083B092C500EA
:1002C000A092C4001F910F91FF90EF90DF90CF900C
:1002D000BF90AF9008959091C00095FFFCCF8093A0
:0802E000C6000895F894FFCF59
:00000001FF
