:020000020000FC
:040000000C9422003A
:04000C000C949D00B3
:100040000C9492000FEF0DBF18E01EBF40792430D2
:1000500019120278001000E800E80093610001E046
:10006000009361000FEF0AB907B940E04093C10067
:1000700007E005B908E104B901E00093680006E073
:1000800000936B008FEE85B9789430E010E0C0E00B
:1000900090E060E050E070E074BD75E075BD72EB1B
:1000A00076BD71E070936E000C945E0060E0539535
:1000B0000C945E00639570E00C945E006A30B1F3BE
:1000C0007436C1F30E947E0087EE85B987EF85B94B
:1000D000F0E0ECE4E50F94919BB90E947E008FEE76
:1000E00085B98FEE85B9F0E0ECE4E60F94919BB909
:1000F0000E947E00563079F00C945E003FEF3A95F6
:10010000F1F73FEF3A95F1F73FEF3A95F1F73FEF0F
:100110003A95F1F708950E947E0050E060E00C945B
:100120005E00CCCF1F931FB71F9302EB06BDA89AAA
:1001300073951F911FBF1F9118950F930FB70F93C2
:1001400043B142FD0C94A7002A950C94AB0041FDED
:100150000C94AB0023952F7028B9D89A0F910FBF3C
:040160000F9118954E
:00000001FF
