S00F00005072656C6162342E737265638B
S11300000C9434000C9451000C9451000C94410154
S11300100C9451000C9451000C9451000C94510018
S11300200C9451000C9451000C9451000C94510008
S11300300C9451000C9451000C9451000C945100F8
S11300400C9451000C9451000C9451000C945100E8
S11300500C9451000C9423010C9451000C94510005
S11300600C9451000C94510011241FBECFEFD8E022
S1130070DEBFCDBF11E0A0E0B1E0EEECF2E002C0E3
S113008005900D92A031B107D9F721E0A0E1B1E0CC
S113009001C01D92A831B207E1F70E9470000C94D0
S11300A065010C940000ECE7F0E087E08083808138
S11300B08064808380818F77808380818062808365
S11300C0EAE7F0E010828081806880838081886024
S11300D080838081876080838081806880830895A5
S11300E0F8940E9453007894E8E6F0E080818160FF
S11300F08083EBE6F0E08081836080838AB19FEFA8
S11301009AB91BB81092C10084B18C6384B987B1C9
S113011097B91092170110921601EAE7F0E0808176
S11301208064808380911601909117018F3F91051F
S113013039F034F08FEF90E090931701809316011B
S11301408091160190911701992324F410921701BC
S113015010921601809116018BB98FE19EE40197EC
S1130160F1F700C0000088E085B9809112019091F8
S113017013018F7099279093150180931401FC014A
S1130180E050FF4F808188B980911401909115014E
S11301908230910528F08730910511F00C9719F4FD
S11301A085B185B903C085B1806285B98FE79EE3C7
S11301B00197F1F700C0000084E085B98091120135
S11301C09091130195958795959587959595879524
S11301D0959587958F7099279093110180931001BD
S11301E08230910528F08730910511F00C9719F4AD
S11301F085B185B903C085B1806285B9E0911001EC
S1130200F0911101E050FF4F808188B920911601CF
S11302103091170180911201909113012817390729
S11302201CF485B1806185B92091160130911701C4
S11302308091120190911301821793070CF06DCFF6
S113024085B185B96ACF1F920F920FB60F92112410
S11302508F939F93EF93FF938091790090E0909315
S1130260130180931201EAE7F0E0808180618083CA
S1130270FF91EF919F918F910F900FBE0F901F9060
S113028018951F920F920FB60F9211248F939F937C
S1130290199909C0809116019091170101969093C4
S11302A0170180931601189909C080911601909145
S11302B01701019790931701809316019F918F91D5
S11102C00F900FBE0F901F901895F894FFCF6B
S11302CE3F065B4F666D7D077F6F777C395E797174
S9030000FC
