:100000000C9434000C9446000C9446000C9446006A
:100010000C9446000C9446000C9446000C94460048
:100020000C9446000C9446000C9446000C94460038
:100030000C9446000C9446000C9446000C94460028
:100040000C9446000C9446000C9446000C94460018
:100050000C9446000C9472000C9446000C944600DC
:100060000C9446000C94460011241FBECFEFD8E03C
:10007000DEBFCDBF21E0A0E0B1E001C01D92A630FF
:10008000B207E1F70E9465000C943E010C94000059
:10009000ECE7F0E087E0808380818064808380816A
:1000A0008F778083808180628083EAE7F0E010822E
:1000B0008081806880838081886080838081876080
:1000C00080838081806880830895F8940E9448002E
:1000D00078948FEF8AB90E94A80060E08AE00E94BD
:1000E000C000FFCF1F920F920FB60F9211242F93D3
:1000F0003F934F935F936F937F938F939F93AF93B0
:10010000BF93EF93FF936091790070E080E090E0FF
:100110000E94D9006093020170930301809304014F
:1001200090930501EAE7F0E0808180618083FF9190
:10013000EF91BF91AF919F918F917F916F915F915F
:100140004F913F912F910F900FBE0F901F901895D8
:1001500084B1826084B9E0E8F0E08081877F8083A9
:1001600084B5826084BD84B5816084BD85B58B7F94
:1001700085BD84B5826084BD84B5816084BD0895E9
:10018000613039F494B5906894BD94B59F7B94BD6B
:1001900006C094B5906894BD94B5906494BD2FEF5B
:1001A000829FC001112464E670E00E94160167BDC1
:1001B0000895E89409C097FB3EF49095809570955A
:1001C00061957F4F8F4F9F4F9923A9F0F92F96E9A3
:1001D000BB279395F695879577956795B795F11118
:1001E000F8CFFAF4BB0F11F460FF1BC06F5F7F4FB5
:1001F0008F4F9F4F16C0882311F096E911C07723C7
:1002000021F09EE8872F762F05C0662371F096E8CF
:10021000862F70E060E02AF09A95660F771F881F9E
:10022000DAF7880F9695879597F9089597FB072E2B
:1002300016F4009407D077FD09D00E942A0107FC2C
:1002400005D03EF4909581959F4F089570956195E6
:100250007F4F0895AA1BBB1B51E107C0AA1FBB1FFC
:10026000A617B70710F0A61BB70B881F991F5A9542
:10027000A9F780959095BC01CD010895F894FFCF22
:00000001FF
