:100000000C9434000C9446000C9446000C9446006A
:100010000C9446000C9446000C9446000C94460048
:100020000C9446000C9446000C9446000C94460038
:100030000C9446000C9446000C9446000C94460028
:100040000C9446000C9446000C9446000C94460018
:100050000C9446000C9446000C9446000C94460008
:100060000C9455000C94460011241FBECFEFD8E02D
:10007000DEBFCDBF21E0A0E0B1E001C01D92A33002
:10008000B207E1F70E9402010C9431040C940000C5
:1000900097B19F7C97B990E0880F991F81608093FA
:1000A000BA0085E48093BC0008951F920F920FB6AA
:1000B0000F9211248F93EF93FF938091B900887F63
:1000C0008039C9F038F4803781F08038A1F080366B
:1000D00061F50BC0883BC9F018F4883AB1F025C02F
:1000E000803CE9F0883CD9F020C0ECEBF0E0808166
:1000F000806880831FC08091BB0080930101ECEB7E
:10010000F0E080818068808315C080910201809337
:10011000BB00ECEBF0E08081806C80830BC0ECEBEB
:10012000F0E08081806C808305C0ECEBF0E08081A2
:1001300080698083FF91EF918F910F900FBE0F9098
:100140001F9018958AB184608AB98AB1877F8AB96D
:1001500008958AB180618AB98AB18F7D8AB908957C
:100160008BB18B7F8BB98AE08A95F1F700C08BB198
:1001700084608BB985E38A95F1F700008BB18B7FA2
:100180008BB94B9BFECF20E030E006C02F5F3F4F86
:1001900085E08A95F1F700004B99F8CFAFE9B6E416
:1001A0000E942204929582958F7089279F708927DB
:1001B00008958BB18F7E8BB98AE08A95F1F700C0E4
:1001C0008BB180618BB985E38A95F1F700008BB123
:1001D0008F7E8BB94D9BFECF20E030E006C02F5FB5
:1001E0003F4F85E08A95F1F700004D99F8CFAFE9D0
:1001F000B6E40E942204929582958F7089279F70A1
:100200008927089587B1876087B984B1866084B9EA
:100210000E94A2000E94A9000E94770181E00E9432
:10022000480078940E94B000EC010E94D9009C0123
:1002300090910101913439F481E08093000188B1FB
:10024000846088B909C080910101823429F4109238
:10025000000188B18B7F88B9269738F481E08093BC
:10026000020198B1916098B905C01092020198B14D
:100270009E7F98B990910001913051F488B18260CD
:1002800088B960E070E088EC92E40E94240216C015
:100290002630310550F488B1826088B960E070E0A2
:1002A00088EC92E40E94240209C088B18D7F88B94D
:1002B00060E070E08FE294E40E942402409B07C05B
:1002C00060E070E08FE294E40E94F20106C060E01A
:1002D00070E088EC92E40E94F2012FEF89E698E149
:1002E000215080409040E1F700C000009BCF84B1D6
:1002F000866084B910928500109284008FE39CE997
:100300009093870080938600E0E8F0E080EA8083A5
:10031000808182608083E1E8F0E088E180838081F1
:100320008260808308954F925F926F927F92AF9226
:10033000BF92CF92DF92EF92FF920F931F93CF93D2
:10034000DF93CDB7DEB728970FB6F894DEBF0FBEA8
:10035000CDBF29013A01ED82FE820F8318870E94EA
:10036000560269837A838B839C83A6019501698DEC
:100370007A8D8B8D9C8D0E9456029B01AC01698108
:100380007A818B819C810E94B50369837A838B83F8
:100390009C83A3019201C801B7010E9456029B01F0
:1003A000AC0169817A818B819C810E94C3029B018F
:1003B000AC01C601B5010E94570228960FB6F89409
:1003C000DEBF0FBECDBFDF91CF911F910F91FF9088
:1003D000EF90DF90CF90BF90AF907F906F905F9045
:1003E0004F900895AF92BF92CF92DF92EF92FF921B
:1003F0000F931F9325E42F9326E92F931F921F92AB
:100400000F2EA12CB12CFAE7CF2EF4E4DF2EF02D25
:10041000E12CF12C00E814E420E030E0A9010E9476
:1004200093010F900F900F900F900E9435037093DF
:100430008900609388001F910F91FF90EF90DF90EB
:10044000CF90BF90AF900895AF92BF92CF92DF92BE
:10045000EF92FF920F931F9325E42F9326E92F939A
:100460001F921F920F2EA12CB12CFAE7CF2EF4E48D
:10047000DF2EF02DE12CF12C00E814E420E030E038
:10048000A9010E9493010F900F900F900F900E946E
:10049000350370938B0060938A001F910F91FF903A
:1004A000EF90DF90CF90BF90AF9008955058BB274A
:1004B000AA270E946E020C947B030E946D0338F001
:1004C0000E94740320F039F49F3F19F426F40C9431
:1004D0006A030EF4E095E7FB0C946403E92F0E9495
:1004E0008C0358F3BA17620773078407950720F047
:1004F00079F4A6F50C94AE030EF4E0950B2EBA2F0A
:10050000A02D0B01B90190010C01CA01A001112419
:10051000FF27591B99F0593F50F4503E68F11A16C5
:10052000F040A22F232F342F4427585FF3CF469556
:1005300037952795A795F0405395C9F77EF41F1678
:10054000BA0B620B730B840BBAF09150A1F0FF0F42
:10055000BB1F661F771F881FC2F70EC0BA0F621F2E
:10056000731F841F48F4879577956795B795F7951E
:100570009E3F08F0B0CF9395880F08F09927EE0FB3
:100580009795879508950E94D7020C947B030E944B
:10059000740358F00E946D0340F029F45F3F29F086
:1005A0000C94640351110C94AF030C946A030E94E1
:1005B0008C0368F39923B1F3552391F3951B550BE5
:1005C000BB27AA2762177307840738F09F5F5F4F26
:1005D000220F331F441FAA1FA9F335D00E2E3AF065
:1005E000E0E832D091505040E695001CCAF72BD07D
:1005F000FE2F29D0660F771F881FBB1F26173707CE
:100600004807AB07B0E809F0BB0B802DBF01FF27FF
:1006100093585F4F3AF09E3F510578F00C94640375
:100620000C94AF035F3FE4F3983ED4F3869577953F
:100630006795B795F7959F5FC9F7880F911D9695B8
:10064000879597F90895E1E0660F771F881FBB1F14
:10065000621773078407BA0720F0621B730B840BC1
:10066000BA0BEE1F88F7E09508950E94940388F076
:100670009F5798F0B92F9927B751B0F0E1F0660F66
:10068000771F881F991F1AF0BA95C9F714C0B130A7
:1006900091F00E94AE03B1E008950C94AE03672F71
:1006A000782F8827B85F39F0B93FCCF386957795D6
:1006B0006795B395D9F73EF49095809570956195BF
:1006C0007F4F8F4F9F4F089597F99F6780E870E0A5
:1006D00060E008959FEF80EC089500240A941616B8
:1006E000170618060906089500240A941216130620
:1006F000140605060895092E0394000C11F48823AE
:1007000052F0BB0F40F4BF2B11F460FF04C06F5FC9
:100710007F4F8F4F9F4F089557FD9058440F551F9F
:1007200059F05F3F71F04795880F97FB991F61F073
:100730009F3F79F087950895121613061406551FEA
:10074000F2CF4695F1DF08C0161617061806991F56
:10075000F1CF86957105610508940895E894BB274B
:1007600066277727CB0197F908950E94C8030C9458
:100770007B030E946D0338F00E94740320F09523E0
:1007800011F00C9464030C946A0311240C94AF03CD
:100790000E948C0370F3959FC1F3950F50E0551F95
:1007A000629FF001729FBB27F00DB11D639FAA27C6
:1007B000F00DB11DAA1F649F6627B00DA11D661F15
:1007C000829F2227B00DA11D621F739FB00DA11D36
:1007D000621F839FA00D611D221F749F3327A00DF0
:1007E000611D231F849F600D211D822F762F6A2F8C
:1007F00011249F5750409AF0F1F088234AF0EE0FF1
:10080000FF1FBB1F661F771F881F91505040A9F71D
:100810009E3F510580F00C9464030C94AF035F3F3E
:10082000E4F3983ED4F3869577956795B795F79559
:10083000E7959F5FC1F7FE2B880F911D96958795D1
:1008400097F90895A29FB001B39FC001A39F700DB7
:10085000811D1124911DB29F700D811D1124911DC8
:060860000895F894FFCF9B
:00000001FF
