S016000041726475696E6F4D61657374726F2E7372656361
S11300000C9434000C9451000C9451000C94510045
S11300100C9451000C9451000C9451000C94510018
S11300200C9451000C9451000C9451000C94510008
S11300300C9451000C9451000C9451000C945100F8
S11300400C9451000C9451000C9451000C945100E8
S11300500C9451000C9451000C9451000C945100D8
S11300600C9451000C94510011241FBECFEFD8E022
S1130070DEBFCDBF11E0A0E0B1E0EAE5FFE002C0E1
S113008005900D92AA3BB107D9F722E0AAEBB1E0A3
S113009001C01D92AE35B207E1F70E9466030C94CD
S11300A0AB070C940000CF92DF92EF92FF926B01AA
S11300B07C0187B18F7C87B9443079F018F44130E2
S11300C031F023C0403191F04034C9F01EC0E9EB57
S11300D0F0E080818C7F80831DC0E9EBF0E08081BB
S11300E08D7F808380818160808314C0E9EBF0E0A0
S11300F080818E7F80838081826080830BC0E9EB66
S1130100F0E080818360808305C0E9EBF0E08081CA
S11301108C7F808360E074E284EF90E0A701960115
S11301200E949104CA01B9016051710981099109C0
S11301302091B900237042E050E0FA0102C0EE0FB2
S1130140FF1F2A95E2F79F01032E000C440B550B69
S11301500E9491042093B800ECEBF0E0808184606D
S11301608083FF90EF90DF90CF90089584EA80938E
S1130170BC008091BC008823E4F78091B900887F9B
S1130180883021F0803121F480E0089580E00895E2
S113019081E0089584E98093BC008091BC0084FDD3
S11301A0FCCF08958093BB0084E88093BC008091C9
S11301B0BC008823E4F78091B900887F883131F04E
S11301C0883231F0803429F480E0089580E0089585
S11301D080E00895DC01662331F0ECEBF0E09081DF
S11301E09064908305C0ECEBF0E090819F7B90835A
S11301F0ECEBF0E09081906890839091BC0099239F
S1130200E4F79091B900987F983511F0903529F46E
S11302108091BB008C9380E00895892F089594EA1F
S11302209093BC009091BC009923E4F79091B9009D
S1130230987F983099F590E0880F991F816080939A
S1130240BB0084E88093BC008091BC008823E4F761
S1130250FB018091B900887F803421F00E94CA009C
S113026081E0089584E88093BC008091BC008823D9
S1130270E4F78091B900887F883549F08091B9000E
S1130280887F803521F00E94CA0081E00895809122
S1130290BB0080830E94CA0080E0089581E0089535
S11302A0CF93DF93D82FC62F0E94B6008D2F880FCF
S11302B00E94D2008C2F0E94D2000E94CA00DF91BB
S11302C0CF91089580FF04C09BB190619BB903C096
S11302D09BB19F7E9BB981FF04C09BB190629BB987
S11302E003C09BB19F7D9BB982FF04C09BB1906406
S11302F09BB903C09BB19F7B9BB983FF04C09BB197
S113030090689BB903C09BB19F779BB984FF04C0DD
S113031095B1916095B903C095B19E7F95B985FF5C
S113032004C095B1926095B903C095B19D7F95B90C
S113033086FF04C095B1946095B903C095B19B7FC5
S113034095B9882324F485B1886085B9089585B169
S1130350877F85B908959BB19B7F9BB90E946201F9
S11303608BB188608BB985E08A95F1F700008BB179
S1130370877F8BB98FE39FE10197F1F700C00000FD
S113038008958AB18C6F8AB91BB884B18F6084B91F
S113039015B82FEF89EF90E0215080409040E1F7AD
S11303A000C0000088E30E94AB018FE19EE4019746
S11303B0F1F700C0000088E30E94AB018FE99FE0E1
S11303C00197F1F700C0000088E30E94AB018FE9B8
S11303D09FE00197F1F700C0000088E30E94AB01A1
S11303E08CE00E94AB0181E00E94AB018FE39FE1AE
S11303F00197F1F700C0000086E00E94AB01089568
S11304009BB194609BB90E9462018BB188608BB9E7
S113041085E08A95F1F700008BB1877F8BB98FE374
S11304209FE10197F1F700C0000008950F931F9317
S1130430CF93DF938C01C0E0D0E003C00E940002A0
S11304402196F801EC0FFD1F80818111F7CFDF9118
S1130450CF911F910F910895CF93613031F4CFE77D
S1130460C80F8C2F0E94AB0107C0623029F4CFEB78
S1130470C80F8C2F0E94AB018C2F0E94AB01CF912F
S11304800895AF92BF92CF92DF92EF92FF921F93A3
S1130490CF93DF9300D01F92CDB7DEB77C016B0101
S11304A05A010E94B60080ED0E94D20080E00E94B2
S11304B0D2000E94B60081ED0E94D20010E016C066
S11304C0123050F461E081E090E08C0F9D1F810FA9
S11304D0911D0E94EA0009C060E081E090E08C0F69
S11304E09D1F810F911D0E94EA001F5F133040F38E
S11304F00E94CA008981982F92959F70990F292F85
S1130500220F220F920F8F70890FF50180838A8149
S1130510982F92959F70990F292F220F220F920FD7
S11305208F70890FF60180838B81982F92959F702D
S1130530990F292F220F220F920F8F70890FF70125
S113054080830F900F900F90DF91CF911F91FF90B8
S1130550EF90DF90CF90BF90AF9008956DE572E07B
S113056081E00E940F0190915D02811116C09130CB
S113057051F485E0E2E0F1E0ABEBB1E001900D92E3
S11305808A95E1F7089586E0E7E0F1E0ABEBB1E0AE
S113059001900D928A95E1F7089586E0EDE0F1E08F
S11305A0ABEBB1E001900D928A95E1F7089590913B
S11305B00001961709F1609300011F924F931F9257
S11305C06F931F928F9383E191E09F938F931F9278
S11305D080E88F938CEC91E09F938F930E94B304F7
S11305E08CEC91E00E9479048DB79EB70C960FB6FF
S11305F0F8949EBF0FBE8DBF81E090915D02913053
S113060009F080E0909101018917F9F080930101CC
S11306108BEB91E09F938F9388E291E09F938F936C
S11306201F9280E88F938CEC91E09F938F930E94AC
S1130630B3048CEC91E00E9479048DB79EB70896C0
S11306400FB6F8949EBF0FBE8DBF0895CF938091CF
S1130650C0008823CCF50E948A04C82F8A30A1F1F7
S11306608D3091F1803281F11F928F9383E391E079
S11306709F938F931F9280E88F938CEC91E09F93CC
S11306808F930E94B3048CEC91E00E9479048DB79F
S11306909EB708960FB6F8949EBF0FBE8DBFC133A8
S11306A049F461E481E00E9450018DE491E00E94EC
S11306B079040AC0C03341F462E481E00E9450012D
S11306C08FE691E00E947904CF910895CF93DF9350
S11306D000D01F92CDB7DEB744E064E670E080E05E
S11306E090E00E9453000E94C1010F2EF7E6AF2E46
S11306F0B12CF02D6894CC24C3F8D12CEE24E394CF
S1130700F12C00E010E020E030E040E050E060E058
S113071070E080E895E20E94F5030E94AE02AE010B
S11307204D5F5F4FBE016E5F7F4FCE0101960E9409
S113073041028B811F928F938A811F928F938981AB
S11307401F928F9381E991E09F938F931F9280E88A
S11307508F938CEC91E09F938F930E94B30462E09B
S113076081E00E942C0280EA91E00E94160262E07D
S113077081E00E942C028CEC91E00E94160261E060
S113078081E00E942C0289EA91E00E94160262E054
S11307908BE00E942C0280EA91E00E94160262E043
S11307A08BE00E942C028BEB91E00E94160261E028
S11307B08BE00E942C0281EB91E00E9416024B8197
S11307C06A8189810E94D7020E9426032FEF83ED5C
S11307D090E3215080409040E1F700C000000FB644
S11307E0F894DEBF0FBECDBF98CFAF92BF92CF9229
S11307F0DF92EF92FF920F931F938AB18E7F8AB993
S11308008AB182608AB91092C0006130710529F4FE
S1130810E0ECF0E08081826080834130510529F46E
S1130820E0ECF0E0808181608083E1ECF0E0108214
S11308308081806A80838081886180831092C20075
S11308402130310529F4E2ECF0E08081806480837A
S11308500130110531F4E2ECF0E0808180628083A4
S113086008C00230110529F4E2ECF0E080818063D5
S1130870808382E0E816F10429F4E2ECF0E0808160
S11308808860808387E0C816D104A9F02CF486E040
S1130890C816D10451F020C088E0C816D10489F0EC
S11308A089E0C816D10499F017C0E2ECF0E0808129
S11308B08260808311C0E2ECF0E0808184608083F8
S11308C00BC0E2ECF0E080818660808305C0E2EC3E
S11308D0F0E0808186608083B092C500A092C4005D
S11308E01F910F91FF90EF90DF90CF90BF90AF904A
S11308F00895AC0120E007C09091C00095FFFCCFA3
S11309003093C6002F5FFA01E20FF11D30813111DF
S1130910F3CF08958091C0008823E4F78091C60046
S11309200895A1E21A2EAA1BBB1BFD010DC0AA1F2C
S1130930BB1FEE1FFF1FA217B307E407F50720F044
S1130940A21BB30BE40BF50B661F771F881F991FBF
S11309501A9469F760957095809590959B01AC0108
S1130960BD01CF010895AEE0B0E0E9EBF4E00C94F2
S113097082070D891E898F89988D26E02C831A831E
S1130980098397FF02C080E090E801979E838D83DE
S1130990AE01455E5F4F698D7A8DCE0101960E944E
S11309A0E3044D815E8157FD0AC02F8138854217CB
S11309B053070CF49A01F801E20FF31F10822E96EC
S11309C0E4E00C949E07ABE0B0E0E9EEF4E00C94B4
S11309D074076C017B018A01FC01178216828381F2
S11309E081FFCCC1CE0101963C01F6019381F70150
S11309F093FD859193FF81917F01882309F4BAC106
S1130A00853239F493FD859193FF81917F0185327D
S1130A1029F4B60190E00E94DA06E7CF912C212C4C
S1130A20312CFFE1F315D8F08B3279F038F48032B1
S1130A3079F08332A1F4232D20611DC08D3261F041
S1130A40803369F4232D216016C0832D8260382EF3
S1130A50E32DE4603E2E2AC0F32DF8601DC037FC60
S1130A602DC020ED280F2A3040F08E32B9F436FC28
S1130A7081C1232D2064322E19C036FE06C08AE0BF
S1130A80989E200D1124922E11C0EAE02E9E200D76
S1130A901124222EF32DF0623F2E08C08C3621F44F
S1130AA0832D8068382E02C0883641F4F70193FD07
S1130AB0859193FF81917F018111B3CF982F9F7D01
S1130AC09554933028F40C5F1F4F9FE399830DC016
S1130AD0833631F0833771F0833509F059C021C072
S1130AE0F801808189830E5F1F4F88248394912CA1
S1130AF0530113C02801F2E04F0E511CF801A080ED
S1130B00B18036FE03C0692D70E002C06FEF7FEF45
S1130B10C5010E94CF064C018201F32DFF773F2EC1
S1130B2016C0280122E0420E511CF801A080B180B9
S1130B3036FE03C0692D70E002C06FEF7FEFC50180
S1130B400E94C4064C01F32DF0683F2E820133FC51
S1130B501BC0822D90E088169906B0F4B60180E29D
S1130B6090E00E94DA062A94F4CFF50137FC8591CF
S1130B7037FE81915F01B60190E00E94DA062110F0
S1130B802A9421E0821A91088114910471F7E8C033
S1130B90843611F0893641F5F80137FE07C06081CB
S1130BA07181828193810C5F1F4F08C060817181C4
S1130BB0072E000C880B990B0E5F1F4FF32DFF7649
S1130BC03F2E97FF09C090958095709561957F4F52
S1130BD08F4F9F4FF0683F2E2AE030E0A3010E9420
S1130BE01607882E861845C0853731F4232D2F7EAD
S1130BF0B22E2AE030E025C0932D997FB92E8F368E
S1130C00C1F018F4883579F0B5C0803719F0883709
S1130C1021F0B0C0E92FE061BE2EB4FE0DC0FB2D63
S1130C20F460BF2E09C034FE0AC0292F2660B22EFC
S1130C3006C028E030E005C020E130E002C020E139
S1130C4032E0F801B7FE07C060817181828193812F
S1130C500C5F1F4F06C06081718180E090E00E5FE1
S1130C601F4FA3010E941607882E8618FB2DFF77BD
S1130C703F2E36FE0DC0232D2E7FA22E891458F44C
S1130C8034FE0BC032FC09C0832D8E7EA82E05C015
S1130C90B82CA32C03C0B82C01C0B92CA4FE0FC0DF
S1130CA0FE01E80DF11D8081803321F49A2D997E97
S1130CB0A92E09C0A2FE06C0B394B39404C08A2D21
S1130CC0867809F0B394A3FC11C0A0FE06C0B21448
S1130CD088F4280C922C9B180EC0B21460F4B60150
S1130CE080E290E00E94DA06B394F7CFB21418F4CD
S1130CF02B1802C0982C212CA4FE10C0B60180E34E
S1130D0090E00E94DA06A2FE17C0A1FC03C088E7A7
S1130D1090E002C088E590E0B6010CC08A2D867888
S1130D2059F0A1FE02C08BE201C080E2A7FC8DE273
S1130D30B60190E00E94DA06891438F4B60180E323
S1130D4090E00E94DA069A94F7CF8A94F301E80DB2
S1130D50F11D8081B60190E00E94DA068110F5CF82
S1130D60222009F442CEB60180E290E00E94DA0625
S1130D702A94F6CFF6018681978102C08FEF9FEF08
S1130D802B96E2E10C949007FC01059061507040B1
S1130D900110D8F7809590958E0F9F1F0895FC0140
S1130DA06150704001900110D8F7809590958E0F96
S1130DB09F1F08950F931F93CF93DF93FB0123810C
S1130DC021FD03C08FEF9FEF2CC022FF16C0468188
S1130DD05781248135814217530744F4A081B1819E
S1130DE09D012F5F3F4F318320838C932681378170
S1130DF02F5F3F4F3783268314C08B01EC01FB0127
S1130E000084F185E02D0995892BE1F6D801169629
S1130E108D919C911797019617969C938E93169794
S1130E20CE01DF91CF911F910F910895FA01AA2766
S1130E30283051F1203181F1E8946F936E7F6E5F19
S1130E407F4F8F4F9F4FAF4FB1E03ED0B4E03CD0C7
S1130E50670F781F891F9A1FA11D680F791F8A1FAA
S1130E60911DA11D6A0F711D811D911DA11D20D011
S1130E7009F468943F912AE0269F11243019305DCB
S1130E803193DEF6CF010895462F4770405D4193BC
S1130E90B3E00FD0C9F7F6CF462F4F70405D4A3309
S1130EA018F0495D31FD4052419302D0A9F7EACFD1
S1130EB0B4E0A6959795879577956795BA95C9F700
S1130EC000976105710508959B01AC010A2E0694F3
S1130ED05795479537952795BA95C9F7620F731FAC
S1130EE0841F951FA01D08952F923F924F925F92E9
S1130EF06F927F928F929F92AF92BF92CF92DF9226
S1130F00EF92FF920F931F93CF93DF93CDB7DEB78A
S1130F10CA1BDB0B0FB6F894DEBF0FBECDBF09941E
S1130F202A88398848885F846E847D848C849B8475
S1130F30AA84B984C884DF80EE80FD800C811B8183
S1130F40AA81B981CE0FD11D0FB6F894DEBF0FBEB2
S10D0F50CDBFED010895F894FFCF22
S1130F5AFFFF6F70656E00636C6F73650065727274
S1130F6A6F7200486F72613A253032643A25303222
S1130F7A643A253032640A005075657274613A2500
S1130F8A730A00526563696269646F2064657364F5
S1130F9A652045535033323A2025630A0042616E74
S1130FAA646572612027412720656E7669616461F0
S1130FBA20616C206573636C61766F20310A00428C
S1130FCA616E646572612027422720656E766961C5
S1130FDA646120616C206573636C61766F20310AE9
S1130FEA00253032643A253032643A2530326400BE
S1130FFA2020202020202020005469656D706F3A3B
S10D100A005075657274613A00002D
S9030000FC
