:020000020000FC
:100000000FEF0DBF18E01EBF40792430191202789F
:10001000001008034621060E00E200E8009361008C
:1000200001E0009361000FEF07B904B900E30AB9DA
:1000300040E0F0E0E8E005E005BD07E806BD00C0EF
:1000400089B18C70843079F18830A9F1803001F069
:10005000F0E0E8E0E70F20E030E02491322F5FE1AC
:10006000252350E63523369528B93BB905B3013031
:1000700039F703EC06BDA89A93959A3009F7362F05
:100080006F70703069F03072303221F4671731F4DC
:1000900060E007C0671721F460E203C030E2632B21
:1000A000639565B9CDCF00E005BD4F3009F04395AC
:1000B0000CD0742FC0CF00E005BD403009F24A9546
:1000C00004D0742FE70FB7CFBBCF14E624E634E695
:1000D00000003A95E9F72A95D1F71A95B9F70895EE
:0400E00060E0DFCF2E
:00000001FF
