:100000000C9437000C94510F0C94510F0C94510F19
:100010000C94510F0C94510F0C94510F0C94510FE0
:100020000C94510F0C94510F0C94510F0C94510FD0
:100030000C94510F0C94510F0C94510F0C94510FC0
:100040000C94510F0C94510F0C94510F0C94510FB0
:100050000C94510F0C94510F0C94510F0C94510FA0
:100060000C94510F0C94510F0100010480001124D5
:100070001FBECFEFD8E0DEBFCDBFE8E6F0E040E046
:1000800017C0B591A59135912591059107FD0CC03B
:1000900095918591EF01F92FE82F05900D92A21708
:1000A000B307D9F7FE0104C01D92A217B307E1F709
:1000B000ED36F40731F70E94B3060C941B0FF89449
:0200C000FFCF70
:1000C2003129204C65657220706F74200A32292014
:1000D200456E766961722041534349490A0025649D
:1000E2000A0043617261637465722061206D6F73EF
:1000F200747261720A00496E677265736520756E6B
:10010200206EFA6D65726F2076E16C69646F20650E
:100112006E206C6173206F7063696F6E65730A0085
:1001220068076C094C836A9074A07AC00080688862
:0601320000846C820081D4
:07013800286E756C6C2900B4
:06013F00286E696C290026
:10014600A3EAB0E0E9EAF0E00C94400E4C01590154
:10015600C756DF4F488359836A83C959D040212C3B
:10016600312C6E012BE8C20ED11C85E2782E2601B9
:1001760030E8632ECE018D569F4FC456DF4F9983CC
:100186008883CC59D0409C0140E8CF55DF4F288367
:1001960039834A83C15AD040C756DF4F4881C9596F
:1001A600D040C656DF4F5881CA59D040C556DF4F9A
:1001B6006881CB59D040FA01849167FD80818823FC
:1001C60009F4C9C3CF57DF4F19821882C158D040EE
:1001D6008FEF9FEFCD57DF4F99838883C358D04069
:1001E600CB57DF4F19821882C558D040A1E0B0E046
:1001F600AC0FBD1FC957DF4FB983A883C758D0407E
:10020600E0E8F0E0C757DF4FF983E883C958D040EC
:10021600CA01A62FE12CF12CFC012491A7FD208117
:1002260021111BC0E114F10401F19701C4010E94E0
:10023600AB0DC756DF4F88819981AA81C959D04035
:100246008E0D9F1DA11DF7FCAA95C756DF4F88830B
:100256009983AA83C959D04008C00196A11D2532A9
:1002660009F3FFEFEF1AFF0AD7CFC756DF4F888192
:100276009981AA81C959D040FC012491A7FD20810A
:10028600253209F056C39C014A2F2F5F3F4F4F4F2F
:10029600C256DF4F288339834A83CE59D040C7568A
:1002A600DF4F288339834A83C959D040C756DF4F69
:1002B60088819981AA81C959D040FC012491A7FD62
:1002C60020812B3241F4CF57DF4F28813981C15825
:1002D600D04024600BC02C32CCF02D3259F5CF57CC
:1002E600DF4F28813981C158D0402160CF57DF4F79
:1002F60039832883C158D0400196A11DC756DF4FC8
:1003060088839983AA83C959D040D0CF203241F43B
:10031600CF57DF4F28813981C158D0402860E6CFBA
:10032600233291F4CF57DF4F28813981C158D0400D
:100336002061DCCF203341F4CF57DF4F288139814C
:10034600C158D0402260D2CF2A3299F50196A11D1C
:10035600C756DF4F88839983AA83C959D040D501F0
:10036600ED91FC911197CF0102968D939C9380811C
:100376009181CB57DF4F99838883C558D04097FF2B
:100386003EC0CF57DF4F28813981C158D040B1E0F8
:100396002B27CF57DF4F39832883C158D0409195FB
:1003A60081959109CB57DF4F99838883C558D040F3
:1003B60026C0BC018A2F0E94630DCB57DF4F99835D
:1003C6008883C558D040C756DF4F288139814A8176
:1003D600C959D040F901849147FD8081082E000C4F
:1003E600990BC0970A9758F42F5F3F4F4F4FC75648
:1003F600DF4F288339834A83C959D040E4CFCF578A
:10040600DF4F88819981C158D04080FF07C08D7F1A
:10041600CF57DF4F99838883C158D040C756DF4FE7
:1004260088819981AA81C959D040FC012491A7FDF0
:1004360020812E3209F058C0CD57DF4F198218821D
:10044600C358D0409C014A2F2F5F3F4F4F4FC7568E
:10045600DF4F288339834A83C959D040F901549123
:1004660047FD50815A32D1F40296A11DC756DF4F7F
:1004760088839983AA83C959D040D501ED91FC910F
:100486001197CF0102968D939C9380819181CD57D0
:10049600DF4F99838883C358D04026C0842FB90183
:1004A6000E94630DCD57DF4F99838883C358D04090
:1004B600C756DF4F288139814A81C959D040F90191
:1004C600849147FD8081082E000C990BC0970A97EE
:1004D60058F42F5F3F4F4F4FC756DF4F288339835E
:1004E6004A83C959D040E4CFCE0187569F4F0E9418
:1004F600CB0C182FC756DF4F2881C959D040C65696
:10050600DF4F8881CA59D040C556DF4F9881CB59F5
:10051600D040E22FF82F849197FD8081082E000CA1
:10052600990B0E94380F8936910509F45AC0B4F424
:100536008336910509F466C144F48532910509F4C0
:10054600A1C18136910529F1B3C18436910509F41B
:1005560048C0883691050CF42DC1AAC18037910593
:1005660009F4CBC04CF48E36910509F419C18F36C7
:10057600910509F47CC09CC18537910509F454C0E6
:100586008837910509F496C08337910509F090C123
:1005960058C1612F70E0A501C6010E94020E892B89
:1005A60009F4B7C1C756DF4F88819981AA81C95915
:1005B600D0409C014A2F2F5F3F4F4F4FC756DF4F0A
:1005C600288339834A83C959D040FC012491A7FD69
:1005D6002081A601BE016F577F4FC4010E944E0FB6
:1005E60095C1612F70E0950141E050E0C6010E947F
:1005F6007107892B09F48DC1C756DF4F8881998110
:10060600AA81C959D0400196A11DC756DF4F8883DC
:100616009983AA83C959D040A601BE016F577F4F5F
:10062600C4010E94F40572C1612F70E0950140E09B
:1006360050E0C6010E947107892B09F46AC1C756AA
:10064600DF4F88819981AA81C959D0400196A11DA1
:10065600C756DF4F88839983AA83C959D040A6011C
:10066600BE016F577F4FC4010E947D0B4FC1612FA2
:1006760070E0950140E050E0C6010E947107892BA9
:1006860009F447C1C756DF4F88819981AA81C959A4
:10069600D0400196A11DC756DF4F88839983AA8350
:1006A600C959D040A601BE016F577F4FC4010E94B1
:1006B600460A2CC1612F70E0950140E050E0C6016A
:1006C6000E947107892B09F424C1C756DF4F888120
:1006D6009981AA81C959D0409C014A2F2F5F3F4F6B
:1006E6004F4FC756DF4F288339834A83C959D040B5
:1006F600FC012491A7FD20814BC0950140E050E00C
:1007060060EF70E0C6010E947107892B09F401C1F0
:10071600C756DF4F88819981AA81C959D040019671
:10072600A11DC756DF4F88839983AA83C959D04034
:1007360086E02FE331E040E0F901DE01AD56BF4F20
:10074600742F0E94020FD6012C9111963C9111979D
:1007560012964C91129713965C91139714966C917E
:10076600149715967C91159716968C911697179651
:100776009C91A0E00E940F0F51F400E010E0CF55CD
:10078600DF4F288139814A81C15AD040B9C028E754
:10079600A601BE016F577F4FC4010E94B404B6C0C4
:1007A600612F70E09501A1014E0D5F1DC6010E94EB
:1007B600DA09AFC0612F70E0A501C6010E94020EE2
:1007C600892B09F4A6C0C756DF4F88819981AA8173
:1007D600C959D0409C014A2F2F5F3F4F4F4FC756F4
:1007E600DF4F288339834A83C959D040FC012491BD
:1007F600A7FD2081A601BE016F577F4FC4010E944D
:100806004E0F84C0103809F084C0C756DF4F888168
:100816009981AA81C959D0400196A11DC756DF4FBB
:1008260088839983AA83C959D040D501ED91FC915B
:100836001197CF0102968D939C938081F601808358
:100846005BC0103809F065C0C756DF4F88819981B3
:10085600AA81C959D0400196A11DC756DF4F88838A
:100866009983AA83C959D040D501ED91FC9111977E
:10087600CF0103968D939C9320813181428100E0C4
:1008860010E03EC0103809F044C0C756DF4F8881DB
:100896009981AA81C959D0400196A11DC756DF4F3B
:1008A60088839983AA83C959D040F601708224C0EF
:1008B600D6017C92C256DF4F288139814A81CE59B2
:1008C600D040C756DF4F288339834A83C959D04061
:1008D600CF57DF4F19821882C158D040CB57DF4F10
:1008E60019821882C558D0408FEF9FEFCD57DF4F42
:1008F60099838883C358D04001E010E0462D9201C9
:10090600BE016F577F4FC4010E94180B8E0D9F1DAD
:1009160011C0C756DF4F88819981AA81C959D04035
:100926000196A11DC756DF4F88839983AA83C959AB
:10093600D040C7017101E80EF91EE214F3044CF42D
:100946008FE490E090930101809300018FEF9FEF79
:1009560003C0170121CCC101CD55DF4FE2E10C9454
:020966005C0E25
:10096800A4E1B0E0EAEBF4E00C94400E98878F83A2
:100978007A8369835C8B4B8B122FDB011296ED9186
:10098800FC91139714962D913C9115973E832D83D6
:10099800ED90FC90119716962D903C901797F7FDC7
:1009A80003C0E894E1F802C0E1E0F0E0C70180711B
:1009B80099279A878987E4FE1FC0AB89BC892C9147
:1009C80011963C91119712964C91129713965C913F
:1009D800139714966C91149715967C911597169603
:1009E8008C91169717969C91A0E00E940F0F21F00A
:1009F8008D819E81029702C08D819E81970128700A
:100A080033273C872B87E3FC0197AB89BC894C9043
:100A180011965C90119712966C90129713967C9091
:100A2800139714968C90149715969C901597169674
:100A3800AC9016971796BC90A981BA811896CD905C
:100A4800DC901997B1E0CB1AD108D101AC0DBD1DCE
:100A58001C929C838B839F01281B390B3E872D8713
:100A6800C70182709927988B8F87812F012E000CE0
:100A7800990BDC01A154B109BA8BA98B32E0C316DA
:100A8800D10434F489859A85892B09F04CC073C048
:100A98009201A301B401C501A0E00E940F0F81F1EA
:100AA800B1E0CB1AD108C2018F7099278A3091051D
:100AB80014F4C09602C0895A9F4FE989FA897A9737
:100AC80048F49C012062215631092A31310510F47D
:100AD8000E942F0FF101EC0DFD1D80832B813C81BD
:100AE800215031093C832B839201A301B401C50134
:100AF80004E00E94240E29013A014B015C01BECF9B
:100B08008D859E85AB81BC818A0F9B1F181619069F
:100B18003CF21A161B060CF0B5CFEF85F889EF2BBF
:100B280009F0BECFAFCFAB89BC892C9111963C910F
:100B3800119712964C91129713965C9113971496ED
:100B48006C91149715967C91159716968C9116971B
:100B580017969C91A0E00E940F0F69F0F101EC0D2F
:100B6800FD1D31971083B2E0CB1AD108F101EC0DCD
:100B7800FD1D80E38083EB85FC85EF2B41F0F1E0E0
:100B8800CF1AD108F101EC0DFD1D80E28083A98107
:100B9800BA8118962D913C911997215031092C1939
:100BA8003D09C20CD31CA60160E80D811E818F810E
:100BB80098850E94CF089C01EF81F88580819181FA
:100BC80090FF09C0A981BA8112968D919C911397C3
:100BD800821793070CF4C9016496E2E10C945C0E49
:100BE800ADE0B0E0EAEFF5E00C94400E9A87898713
:100BF8007C836B83FA01DB011296CD90DC9013970E
:100C080014968D919C9115979E838D83ED90FC9001
:100C18001197FA82E98216960D90BC91A02DB8879B
:100C2800AF832080318042805380648075808680C5
:100C380097808101B42DF52DE62D7B868C869D86C7
:100C48009101A201B301C401A0E00E940F0F4CF46E
:100C58000E94E40E8901B42FF52FE62F7B878C873D
:100C68009D87D7FC04C0E894E1F8FA82E9829101F3
:100C7800A201B301C401A0E0ED80FE800E940F0F25
:100C88001CF0898182FF04C081E0E81AF10805C0E0
:100C980083FF03C091E0E91AF108CE0101965C01D7
:100CA8008AE0C82ED12C2B2F3F2F4E2F5B856C85C9
:100CB8007D858B819C810E942A08FC019101A201FB
:100CC800B301C401A0E00E940F0F1CF0898182FFCC
:100CD80012C031970F8118850E0F1F1F9101A201B5
:100CE800B301C401A0E00E940F0F14F08BE201C011
:100CF8008DE2D80108C083FF07C03197AF81B8855E
:100D0800AE0FBF1F80E28C93E980FA80AB81BC8173
:100D180018962D913C911997215031092E1B3F0BA4
:100D28008F819885E80FF91FAF0160E80D811E815A
:100D380089859A850E94CF089C01A985BA858D91DD
:100D48009C9190FF07C0EB81FC818281938182177F
:0E0D580093070CF4C9012D96E2E10C945C0E99
:100D6600CF93DF93CDB7DEB7C950D1400FB6F89415
:100D7600DEBF0FBECDBF8AB18C6F8AB984B18360E6
:100D860084B987B18F7B87B988B1806488B940E818
:100D960050E060E070E080E090E00E94B00A0F2E24
:100DA600F7E6AF2EB12CF02D6894CC24C3F8D12CE5
:100DB600EE24E394F12C00E010E020E030E040E087
:100DC60050E060E070E080E895E20E9456090E94DB
:100DD600DF0D813371F586E090E00E94D50B1F92FE
:100DE6008F9380EE90E0A0E0AF939F938F931F9236
:100DF6008AE08F93CE0101969F938F930E94BE0E39
:100E06000FB6F894DEBF0FBECDBF00E010E004C001
:100E16000E94400F0F5F1F4FE1E0F0E0EC0FFD1F57
:100E2600E00FF11F80818111F3CF8AE00E94400F0D
:100E36004EC08233B1F524E130E044EE50E060E08C
:100E4600CE010B960E94770ECE010B960E94D30E12
:100E560015B81BB80E94470F8093030180910301C8
:100E66008F738093020180910201880F880F80930F
:100E76000201909102018BB1892B8BB980910301FC
:100E8600807C8093020180910201829586958695E9
:100E96008370809302019091020185B1892B85B9F7
:100EA60016C08AE00E94400F8AE00E94400F2AE2A4
:100EB60030E048EF50E060E0CE010B960E94770EDE
:100EC600CE010B960E94D30E8AE00E94400F8FE35C
:0C0ED6009CE90197F1F700C0000079CF03
:100EE2000F931F93CF93DF93FC01D90168387105EB
:100EF20031F194F461387105B1F12CF46038710567
:100F020009F478C09FC06238710509F459C0643889
:100F1200710509F46FC096C0603A710509F448C0C2
:100F22002CF46039710509F44BC08CC0603C71052A
:100F320009F476C0603F710509F472C083C0CD9197
:100F4200DC911197CE0102968D939C93452B39F03B
:100F52009881892F880F880B908381835BC0888159
:100F62008083118268C0CD91DC911197CE010496E5
:100F72008D939C93452B99F088819981AA81BB819D
:100F8200AC01BD01770F440B542FBA0180839183CA
:100F9200A283B383448345834683478328C0088161
:100FA20019812A813B81008311832283338345C0C7
:100FB200CD91DC911197CE0102968D939C9323C023
:100FC200CD91DC911197CE0108968D939C937881F7
:100FD20069815A814B813C812D819E818F817083F1
:100FE200618352834383348325839683878381E09D
:100FF20090E02AC0CD91DC911197CE0102968D939B
:101002009C93452BA1F099812881892F880F880B09
:101012002083918382838383848385838683E6CF3F
:10102200CD91DC911197CE0102968D939C9308810C
:10103200198100831183128213821482158216820F
:101042001782D5CF80E090E0DF91CF911F910F9171
:021052000895FF
:10105400A2E1B0E0E0E3F8E00C94400EFC010A8B5E
:101064001B832C83732E642E552E462E7D83CC86B3
:10107400D886BF82AE82868197819B878A87D50175
:101084004D915C91228133818085918501971C016A
:1010940037FF02C021E030E0EA85FB85E80FF91F45
:1010A40010824701E1E0F0E0FA83E983C9018E1977
:1010B4009F099E878D87DA01A270BB27B88BAF8703
:1010C400B885BB0FBB0BB98B1214130474F0A98140
:1010D400BA81AB2B09F05CC0AE81BF818D919C912C
:1010E40011978F7E8D939C9353C02A893B814C81A9
:1010F400572D662D752D842D9D81A0E00E940F0F24
:10110400B1F1E1E02E1A3108FC85F987AF2EB884DD
:10111400C988DC2CEC2CFC2C0C2D1C2D2A893B8141
:101124004C81572D662D752D842D9D810E94F40EC2
:10113400C90129839A83EA85FB85E20DF31D805D4D
:10114400808381E0881A91082A893B814C81572D3C
:10115400662D752D842D9D810E94F60E2A8B3B836E
:101164004C83752E662E572E482E9D83ADCF8D85CC
:101174009E85880D991D181619061CF21814190459
:101184000CF0A5CFEF85F889EF2B09F0BACF9FCFEC
:0A119400C1016296E2E10C945C0ECA
:10119E002F923F924F926F927F928F92AF92BF9209
:1011AE00CF92DF92EF92FF920F931F93CF93DF9325
:1011BE00CDB7DEB766970FB6F894DEBF0FBECDBFC4
:1011CE005C013A01862E6901C701817099279C8BBB
:1011DE008B8BE0FC1DC020173107D4F47801EC187E
:1011EE00FD08FE8AED8AA70191E1E916F10410F0DF
:1011FE0040E150E060E270E0CE0101969A8B898B5F
:10120E000E94260F89899A891C0120E8422E0BC064
:10121E009601682DA301C5010E94AB0DC016D10623
:10122E00ECF2C60125C090E1E916F10458F020E178
:10123E0030E0642DA101C5010E94AB0D80E1E81ADA
:10124E00F108F1CF2D893E892F70332789899A892C
:10125E00AC0160E8C5010E94AB0D8B899C89892B7E
:10126E0031F49601682DA301C5010E94AB0DC80192
:10127E0066960FB6F894DEBF0FBECDBFDF91CF914D
:10128E001F910F91FF90EF90DF90CF90BF90AF9096
:0E129E008F907F906F904F903F902F9008950B
:1012AC00AF92BF92CF92DF92EF92FF920F931F9368
:1012BC008AB18E7F8AB98AB182608AB91092C000D5
:1012CC006130710529F4E0ECF0E08081826080836C
:1012DC004130510529F4E0ECF0E08081816080839D
:1012EC00E1ECF0E010828081806A808380818861EB
:1012FC0080831092C2002130310529F4E2ECF0E039
:10130C008081806480830130110531F4E2ECF0E0DF
:10131C0080818062808308C00230110529F4E2ECE0
:10132C00F0E080818063808382E0E816F10429F488
:10133C00E2ECF0E080818860808387E0C816D104FD
:10134C00A9F02CF486E0C816D10451F020C088E036
:10135C00C816D10489F089E0C816D10499F017C0D9
:10136C00E2ECF0E080818260808311C0E2ECF0E07E
:10137C008081846080830BC0E2ECF0E08081866029
:10138C00808305C0E2ECF0E0808186608083B092BF
:10139C00C500A092C4001F910F91FF90EF90DF90B9
:0813AC00CF90BF90AF900895AF
:1013B400CF93DF93DC01F90164387105D9F164F44A
:1013C4006138710521F16238710509F440C0603853
:1013D400710509F054C02EC060397105C1F184F45F
:1013E4006838710509F04BC0C081D181CE010296E5
:1013F40091838083E881F981ED93FC9340833CC021
:10140400603A7105B9F0603C7105A1F038C0C08143
:10141400D181CE01029691838083E881F981ED9395
:10142400FC93052E000C660B770B4083518362837B
:10143400738322C0C081D181CE01029691838083BF
:10144400E881F981ED93FC935183408315C0C081F9
:10145400D181CE01029691838083E881F981ED9355
:10146400FC9351834083852F880F880B8283838369
:10147400848385838683878381E090E002C080E053
:0814840090E0DF91CF91089583
:10148C00A2E0B0E0ECE4FAE00C94400E1C014B013D
:10149C00FA01DB0112962D913C91139714964D9005
:1014AC005C9015978D919C9111979A8389831696D0
:1014BC006D907C90179737FD03C08D7F9A8389833D
:1014CC00008111812281338144815581668177812C
:1014DC00FE0131965F0188E0C82ED12C7201C40147
:1014EC000E942A08298124FF06C00197F301E80F06
:1014FC00F91F20E32083298123FF06C00197F30104
:10150C00E80FF91F20E22083E980FA80D4011896B5
:10151C002D913C91199721503109281B390B860DBF
:10152C00971DAC0160E88201C1010E94CF089C01AB
:10153C00F1018081918190FF08C0D40112968D91A8
:10154C009C911397821793070CF4C9012296E2E140
:04155C000C945C0E81
:1015600010927C0010927A00009731F4ECE7F0E0E2
:1015700080818064808307C0019729F4ECE7F0E064
:101580008081806C80836115710531F4ECE7F0E0B7
:1015900080818062808308C06130710529F4ECE7A6
:1015A000F0E080818F7D80834230510531F4EAE79D
:1015B000F0E080818160808335C04430510531F492
:1015C000EAE7F0E08081826080832CC048305105DA
:1015D00031F4EAE7F0E080818360808323C040310A
:1015E000510531F4EAE7F0E08081846080831AC01D
:1015F0004032510531F4EAE7F0E080818560808374
:1016000011C04034510531F4EAE7F0E08081866092
:10161000808308C04038510529F4EAE7F0E0808172
:1016200087608083EAE7F0E08081806880830895A6
:101630002F923F924F926F927F928F92AF92BF9272
:10164000CF92DF92EF92FF920F931F93CF93DF938E
:10165000CDB7DEB727970FB6F894DEBF0FBECDBF6C
:101660006C017B013901842E980188E3282E81E0EA
:10167000382E80E0482E87E0F101AE014F5F5F4FCA
:10168000DA01742D0E94020FF70102811381A480F8
:10169000B580E080F18061147104810419F43A018D
:1016A000F0E88F2E2115310529F4882DB3010E9411
:1016B000A80E9C0117FD04C00217130708F4980137
:1016C0008501682DA301C6010E94CF0827960FB699
:1016D000F894DEBF0FBECDBFDF91CF911F910F9168
:1016E000FF90EF90DF90CF90BF90AF908F907F9062
:0A16F0006F904F903F902F900895E7
:1016FA00A2E0B0E0E3E8FBE00C94400E3C014B01B1
:10170A00FA01DB0112962D913C91139714964D9094
:10171A005C9015978D919C9111979A83898316965F
:10172A002D903C90179737FD03C08D7F9A8389834C
:10173A0000811181228133814481558166817781BB
:10174A00FE0131965F018AE0C82ED12C7201C401D4
:10175A000E942A08E980FA80D40118962D913C91BA
:10176A00199721503109281B390B820D931DAC01A1
:10177A0060E88201C3010E94CF089C01F3018081C5
:10178A00918190FF08C0D40112968D919C91139774
:10179A00821793070CF4C9012296E2E10C945C0EBD
:1017AA009C01EAE7F0E09081977F9083ECE7F0E014
:1017BA009081907F90832115310521F48081807F6B
:1017CA00808335C02130310531F4ECE7F0E08081C7
:1017DA00816080832CC02230310531F4ECE7F0E0DF
:1017EA0080818260808323C02330310531F4ECE7A5
:1017FA00F0E08081836080831AC02430310531F49F
:10180A00ECE7F0E080818460808311C025303105E7
:10181A0031F4ECE7F0E080818560808308C02630EF
:10182A00310529F4ECE7F0E0808186608083EAE7FD
:10183A00F0E080818064808380917A0086FDFCCF0D
:06184A0080917900089571
:101850006F927F928F92EF92FF920F931F93CF938D
:10186000DF93CDB7DEB761970FB6F894DEBF0FBE3A
:10187000CDBFFE01319651E1DF011D925A95E9F786
:10188000A2E0B1E0BA83A9839C838B8377FF09C070
:101890008FE490E090930101809300018FEF9FEF20
:1018A00019C03901842E7C01615071097F836E83D8
:1018B0009801682DA301CF010E94900E488559859B
:1018C0002E813F814217530708F49A01F701E20F76
:1018D000F31F108261960FB6F894DEBF0FBECDBF26
:1018E000DF91CF911F910F91FF90EF908F907F909C
:0418F0006F90089558
:1018F40088249924F401E401B0E49F93AA279A155B
:101904008B049C04ED05FE05CF05D007A10798F4D0
:10191400AD2FDC2FCF2FFE2FE92D982C892E982F59
:10192400872F762F652F542F432F322F2227B8501D
:1019340031F7BF9127C01B2EBF91BB27220F331F46
:10194400441F551F661F771F881F991F881C991CE9
:10195400EE1FFF1FCC1FDD1FAA1FBB1F8A149B0491
:10196400EC05FD05CE05DF05A007B10748F08A1890
:101974009B08EC09FD09CE09DF09A00BB10B21601E
:101984001A94E1F62EF49401AF01BE01CD01000CCE
:021994000895B4
:10199600CF92DF92EF92DC0190E0292F30E0220F08
:1019A600331F6901032E000CEE086E2DA6014E5D55
:1019B6005E4F6F4F6A01E62EFA018491E7FC808143
:1019C60081110DC02F5F3F4F032E000C440B2E5D7F
:1019D6003E4F4F4FF901849147FD808124C0CD9041
:1019E600DD90EC901297F6014491E7FC4081841358
:1019F60015C02F5F3F4F032E000C440B2E5D3E4F4C
:101A06004F4FF901949147FD90815FEFC51AD50AB2
:101A1600E50ACD92DD92EC92129701C09F5F9B3052
:0E1A260008F4BBCF892FEF90DF90CF9008958A
:101A34000F931F93CF93DF93DB012D913C9111976B
:101A440030FF25C017964D915C91189715962D91EE
:101A54003C9116974217530778F41296ED91FC9136
:101A64001397808312962D913C9113972F5F3F4FCC
:101A740013963C932E93129717962D913C91189799
:101A84002F5F3F4F18963C932E93179715C01D96C2
:101A9400ED91FC911E97309719F48FEF9FEF0CC0D6
:101AA4008B01EC010995892BC1F7F8018781908599
:101AB400019690878783CE01DF91CF911F910F917B
:021AC400089583
:101AC600CF939B01482FF901849147FD8081803295
:101AD600C9F1682F082E000C770B69507109653023
:101AE600710580F18B3249F5A0E0B0E02F5F3F4FE2
:101AF6004F4F02C0A0E0B0E080E090E0CAE0F901FC
:101B0600649147FD6081062E000C770B60537109C6
:101B16006A30710560F4C89FF001C99FF00D112469
:101B26002F5F3F4F4F4FCF01861B970BE8CFAB2B55
:101B360069F491958195910909C08D32D9F6A1E094
:101B4600B0E0D4CF2F5F3F4F4F4FBDCFCF91089519
:101B56006F927F928F92CF92DF92EF920F931F93A5
:101B6600CF93DF938C016A01E62EE9013A01862EB6
:101B7600620E731E811C37FD8A94C614D704E804CE
:101B860079F0F6018491E7FC8081B801082E000CFB
:101B9600990B0E941A0D8FEFC81AD80AE80AEDCFE2
:101BA600CE01DF91CF911F910F91EF90DF90CF90F3
:081BB6008F907F906F9008955D
:101BBE00CF93DF93CDB7DEB76E970FB6F894DEBF37
:101BCE000FBECDBF22EC30E040E08EE1F901DE0128
:101BDE001196742F0E94020FCE0101960E94D30E11
:101BEE000E94470F6E960FB6F894DEBF0FBECDBFA4
:061BFE00DF91CF91089574
:101C0400FA0160387105CCF0623871051CF0633854
:101C1400710599F4A081B1819D012C5F3F4F3183FF
:101C240020834D915D916D917C91FC0140835183A2
:101C34006283738381E090E0089580E090E00895EA
:101C440097FB10F8169400080F93083098F008508A
:101C5400232F342F452F562F672F782F892F902D20
:101C6400F4CF0594979587957795679557954795FC
:0C1C7400379527950A95AAF70F9108955F
:101C80002F923F924F925F926F927F928F929F928C
:101C9000AF92BF92CF92DF92EF92FF920F931F937A
:101CA000CF93DF93CDB7DEB7CA1BDB0B0FB6F8942B
:081CB000DEBF0FBECDBF099499
:101CB8002A88398848885F846E847D848C849B84D4
:101CC800AA84B984C884DF80EE80FD800C811B81E2
:101CD800AA81B981CE0FD11D0FB6F894DEBF0FBE11
:061CE800CDBFED010895DF
:101CEE00CF92DF92EF926A01E62EDC01280F391FA8
:101CFE00A217B30751F0F6014491E7FC40814D93D2
:101D0E004FEFC41AD40AE40AF3CFEF90DF90CF90CE
:021D1E00089526
:101D2000A2E0B0E0E6E9FEE00C944E0E8C013A83AE
:101D300029839E012F5F3F4F0E94A300F80120815D
:101D400024FF02C08FEF9FEF2296E4E00C946A0E0E
:101D5000CF92DF92EF926B01E82EA82FCB01FC010E
:101D60002491A7FD2081222319F00196A11DF7CF10
:0C1D70008C199D09EF90DF90CF90089532
:101D7C00A0E0B0E0E4ECFEE00C944E0E8E01025FAD
:101D8C001F4F2B853C854D8569857A858F8198857C
:0A1D9C000E94280CE4E00C946A0E8B
:101DA600AC0120E007C09091C00095FFFCCF3093B6
:101DB600C6002F5FFA01E20FF11D30813111F3CF1A
:021DC60008957E
:101DC80060957095809590953095409550952195A2
:101DD8003F4F4F4F5F4F6F4F7F4F8F4F9F4F08952C
:101DE800689401C0E8948F929F92CF93DF930E94EA
:0C1DF8007A0CDF91CF919F908F9008959E
:101E0400992777FD05C005900D920197E1F7089594
:0A1E140001900D920197E1F7089587
:101E1E000024A7FD00942A173005400550056005E3
:081E2E00700580059005089580
:101E3600EC010E94560F0E94550FCE010E94570FCB
:061E4600CE010E94530FC3
:101E4C00FC01480F591FE417F50711F06193FBCF04
:021E5C000895E7
:101E5E009C01215631092A31310510F48F759927CD
:021E6E000895D5
:101E70009C01215431092A31310508F4806208950A
:0E1E80009091C00095FFFCCF8093C60008959E
:0E1E8E008091C0008823E4F78091C60008957B
:061E9C0080E090E00895D3
:041EA2000C9400009C
:041EA6000E945F0037
:021EAA00089599
:021EAC00089597
:021EAE00089595
:00000001FF
